:1000000000000000000000000000000000000000F0
:1000100000000000000000000000000000000000E0
:1000200000000000000000000000000000000000D0
:1000300000000000000000000000000000000000C0
:10040000000102030405060708090A0B0C0D0E0F74
:10041000101112131415161718191A1B1C1D1E1F64
:10042000202122232425262728292A2B2C2D2E2F54
:10043000303132333435363738393A3B3C3D3E3F44
:10044000404142434445464748494A4B4C4D4E4F34
:10045000505152535455565758595A5B5C5D5E5F24
:100460006061626300000000000000000000000006
:10047000000000000000000000000000000000007C
:10048000000000000000000000000000000000006C
:10049000000000000000000000000000000000005C
:1004A000000000000000000000000000000000004C
:1008000000000101020203030404050506060707B0
:10081000080809090A0A0B0B0C0C0D0D0E0E0F0F20
:100820001010111112121313141415151616171790
:10083000181819191A1A1B1B1C1C1D1D1E1E1F1F00
:100840002020212122222323242425252626272770
:10085000282829292A2A2B2B2C2C2D2D2E2E2F2FE0
:100860003030313132323333343435353636373750
:10087000383839393A3A3B3B3C3C3D3D3E3E3F3FC0
:100880004040414142424343444445454646474730
:10089000484849494A4A4B4B4C4C4D4D4E4E4F4FA0
:1008A0005050515152525353545455555656575710
:1008B000585859595A5A5B5B5C5C5D5D5E5E5F5F80
:1008C000606061616262636300000000000000001C
:1008D0000000000000000000000000000000000018
:1008E0000000000000000000000000000000000008
:1008F00000000000000000000000000000000000F8
:1009000000000000000000000000000000000000E7
:100C000000000001010102020203030304040405C1
:100C100005050606060707070808080909090A0A5C
:100C20000A0B0B0B0C0C0C0D0D0D0E0E0E0F0F0FF7
:100C30001010101111111212121313131414141591
:100C400015151616161717171818181919191A1A2C
:100C50001A1B1B1B1C1C1C1D1D1D1E1E1E1F1F1FC7
:100C60002020202121212222222323232424242561
:100C700025252626262727272828282929292A2AFC
:100C80002A2B2B2B2C2C2C2D2D2D2E2E2E2F2F2F97
:100C90003030303131313232323333333434343531
:100CA00035353636363737373838383939393A3ACC
:100CB0003A3B3B3B3C3C3C3D3D3D3E3E3E3F3F3F67
:100CC0004040404141414242424343434444444501
:100CD00045454646464747474848484949494A4A9C
:100CE0004A4B4B4B4C4C4C4D4D4D4E4E4E4F4F4F37
:100CF00050505051515152525253535354545455D1
:100D000055555656565757575858585959595A5A6B
:100D10005A5B5B5B5C5C5C5D5D5D5E5E5E5F5F5F06
:100D20006060606161616262626363630000000031
:100D300000000000000000000000000000000000B3
:100D400000000000000000000000000000000000A3
:100D50000000000000000000000000000000000093
:100D60000000000000000000000000000000000083
:1010000000000000010101010202020203030303C8
:101010000404040405050505060606060707070778
:1010200008080808090909090A0A0A0A0B0B0B0B28
:101030000C0C0C0C0D0D0D0D0E0E0E0E0F0F0F0FD8
:101040001010101011111111121212121313131388
:101050001414141415151515161616161717171738
:1010600018181818191919191A1A1A1A1B1B1B1BE8
:101070001C1C1C1C1D1D1D1D1E1E1E1E1F1F1F1F98
:101080002020202021212121222222222323232348
:1010900024242424252525252626262627272727F8
:1010A00028282828292929292A2A2A2A2B2B2B2BA8
:1010B0002C2C2C2C2D2D2D2D2E2E2E2E2F2F2F2F58
:1010C0003030303031313131323232323333333308
:1010D00034343434353535353636363637373737B8
:1010E00038383838393939393A3A3A3A3B3B3B3B68
:1010F0003C3C3C3C3D3D3D3D3E3E3E3E3F3F3F3F18
:1011000040404040414141414242424243434343C7
:101110004444444445454545464646464747474777
:1011200048484848494949494A4A4A4A4B4B4B4B27
:101130004C4C4C4C4D4D4D4D4E4E4E4E4F4F4F4FD7
:101140005050505051515151525252525353535387
:101150005454545455555555565656565757575737
:1011600058585858595959595A5A5A5A5B5B5B5BE7
:101170005C5C5C5C5D5D5D5D5E5E5E5E5F5F5F5F97
:101180006060606061616161626262626363636347
:10119000000000000000000000000000000000004F
:1011A000000000000000000000000000000000003F
:1011B000000000000000000000000000000000002F
:1011C000000000000000000000000000000000001F
:1014000000000000000101010101020202020203CA
:101410000303030304040404040505050505060687
:101420000606060707070707080808080809090944
:1014300009090A0A0A0A0A0B0B0B0B0B0C0C0C0C01
:101440000C0D0D0D0D0D0E0E0E0E0E0F0F0F0F0FBE
:10145000101010101011111111111212121212137A
:101460001313131314141414141515151515161637
:1014700016161617171717171818181818191919F4
:1014800019191A1A1A1A1A1B1B1B1B1B1C1C1C1CB1
:101490001C1D1D1D1D1D1E1E1E1E1E1F1F1F1F1F6E
:1014A000202020202021212121212222222222232A
:1014B00023232323242424242425252525252626E7
:1014C00026262627272727272828282828292929A4
:1014D00029292A2A2A2A2A2B2B2B2B2B2C2C2C2C61
:1014E0002C2D2D2D2D2D2E2E2E2E2E2F2F2F2F2F1E
:1014F00030303030303131313131323232323233DA
:101500003333333334343434343535353535363696
:101510003636363737373737383838383839393953
:1015200039393A3A3A3A3A3B3B3B3B3B3C3C3C3C10
:101530003C3D3D3D3D3D3E3E3E3E3E3F3F3F3F3FCD
:101540004040404040414141414142424242424389
:101550004343434344444444444545454545464646
:101560004646464747474747484848484849494903
:1015700049494A4A4A4A4A4B4B4B4B4B4C4C4C4CC0
:101580004C4D4D4D4D4D4E4E4E4E4E4F4F4F4F4F7D
:101590005050505050515151515152525252525339
:1015A00053535353545454545455555555555656F6
:1015B00056565657575757575858585858595959B3
:1015C00059595A5A5A5A5A5B5B5B5B5B5C5C5C5C70
:1015D0005C5D5D5D5D5D5E5E5E5E5E5F5F5F5F5F2D
:1015E00060606060606161616161626262626263E9
:1015F000636363630000000000000000000000005F
:1016000000000000000000000000000000000000DA
:1016100000000000000000000000000000000000CA
:1016200000000000000000000000000000000000BA
:1016300000000000000000000000000000000000AA
:10164000000000000000000000000000000000009A
:10165000000000000000000000000000000000008A
:10166000000000000000000000000000000000007A
:10167000000000000000000000000000000000006A
:10168000000000000000000000000000000000005A
:10169000000000000000000000000000000000004A
:1016A000000000000000000000000000000000003A
:1016B000000000000000000000000000000000002A
:1016C000000000000000000000000000000000001A
:1016D000000000000000000000000000000000000A
:1016E00000000000000000000000000000000000FA
:1016F00000000000000000000000000000000000EA
:1017000000000000000000000000000000000000D9
:1017100000000000000000000000000000000000C9
:1017200000000000000000000000000000000000B9
:1017300000000000000000000000000000000000A9
:101740000000000000000000000000000000000099
:101750000000000000000000000000000000000089
:101760000000000000000000000000000000000079
:101770000000000000000000000000000000000069
:101780000000000000000000000000000000000059
:101790000000000000000000000000000000000049
:1017A0000000000000000000000000000000000039
:1017B0000000000000000000000000000000000029
:1017C0000000000000000000000000000000000019
:1017D0000000000000000000000000000000000009
:1017E00000000000000000000000000000000000F9
:1017F00000000000000000000000000000000000E9
:1018000000000000000001010101010102020202CA
:101810000202030303030303040404040404050590
:101820000505050506060606060607070707070756
:101830000808080808080909090909090A0A0A0A1A
:101840000A0A0B0B0B0B0B0B0C0C0C0C0C0C0D0DE0
:101850000D0D0D0D0E0E0E0E0E0E0F0F0F0F0F0FA6
:10186000101010101010111111111111121212126A
:101870001212131313131313141414141414151530
:1018800015151515161616161616171717171717F6
:101890001818181818181919191919191A1A1A1ABA
:1018A0001A1A1B1B1B1B1B1B1C1C1C1C1C1C1D1D80
:1018B0001D1D1D1D1E1E1E1E1E1E1F1F1F1F1F1F46
:1018C000202020202020212121212121222222220A
:1018D00022222323232323232424242424242525D0
:1018E0002525252526262626262627272727272796
:1018F0002828282828282929292929292A2A2A2A5A
:101900002A2A2B2B2B2B2B2B2C2C2C2C2C2C2D2D1F
:101910002D2D2D2D2E2E2E2E2E2E2F2F2F2F2F2FE5
:1019200030303030303031313131313132323232A9
:10193000323233333333333334343434343435356F
:101940003535353536363636363637373737373735
:101950003838383838383939393939393A3A3A3AF9
:101960003A3A3B3B3B3B3B3B3C3C3C3C3C3C3D3DBF
:101970003D3D3D3D3E3E3E3E3E3E3F3F3F3F3F3F85
:101980004040404040404141414141414242424249
:10199000424243434343434344444444444445450F
:1019A00045454545464646464646474747474747D5
:1019B0004848484848484949494949494A4A4A4A99
:1019C0004A4A4B4B4B4B4B4B4C4C4C4C4C4C4D4D5F
:1019D0004D4D4D4D4E4E4E4E4E4E4F4F4F4F4F4F25
:1019E00050505050505051515151515152525252E9
:1019F00052525353535353535454545454545555AF
:101A00005555555556565656565657575757575774
:101A10005858585858585959595959595A5A5A5A38
:101A20005A5A5B5B5B5B5B5B5C5C5C5C5C5C5D5DFE
:101A30005D5D5D5D5E5E5E5E5E5E5F5F5F5F5F5FC4
:101A40006060606060606161616161616262626288
:101A50006262636363636363000000000000000070
:101A60000000000000000000000000000000000076
:101A70000000000000000000000000000000000066
:101A80000000000000000000000000000000000056
:101A90000000000000000000000000000000000046
:101AA0000000000000000000000000000000000036
:101AB0000000000000000000000000000000000026
:101AC0000000000000000000000000000000000016
:101AD0000000000000000000000000000000000006
:101AE00000000000000000000000000000000000F6
:101AF00000000000000000000000000000000000E6
:101B000000000000000000000000000000000000D5
:101B100000000000000000000000000000000000C5
:101B200000000000000000000000000000000000B5
:101B300000000000000000000000000000000000A5
:101B40000000000000000000000000000000000095
:101B50000000000000000000000000000000000085
:101B60000000000000000000000000000000000075
:101B70000000000000000000000000000000000065
:101B80000000000000000000000000000000000055
:101B90000000000000000000000000000000000045
:101BA0000000000000000000000000000000000035
:101BB0000000000000000000000000000000000025
:101BC0000000000000000000000000000000000015
:101BD0000000000000000000000000000000000005
:101BE00000000000000000000000000000000000F5
:101BF00000000000000000000000000000000000E5
:101C000000000000000000010101010101010202C9
:101C10000202020202030303030303030404040495
:101C20000404040505050505050506060606060661
:101C3000060707070707070708080808080808092C
:101C40000909090909090A0A0A0A0A0A0A0B0B0BF7
:101C50000B0B0B0B0C0C0C0C0C0C0C0D0D0D0D0DC3
:101C60000D0D0E0E0E0E0E0E0E0F0F0F0F0F0F0F8F
:101C70001010101010101011111111111111121259
:101C80001212121212131313131313131414141425
:101C900014141415151515151515161616161616F1
:101CA00016171717171717171818181818181819BC
:101CB0001919191919191A1A1A1A1A1A1A1B1B1B87
:101CC0001B1B1B1B1C1C1C1C1C1C1C1D1D1D1D1D53
:101CD0001D1D1E1E1E1E1E1E1E1F1F1F1F1F1F1F1F
:101CE00020202020202020212121212121212222E9
:101CF00022222222222323232323232324242424B5
:101D00002424242525252525252526262626262680
:101D1000262727272727272728282828282828294B
:101D20002929292929292A2A2A2A2A2A2A2B2B2B16
:101D30002B2B2B2B2C2C2C2C2C2C2C2D2D2D2D2DE2
:101D40002D2D2E2E2E2E2E2E2E2F2F2F2F2F2F2FAE
:101D50003030303030303031313131313131323278
:101D60003232323232333333333333333434343444
:101D70003434343535353535353536363636363610
:101D800036373737373737373838383838383839DB
:101D90003939393939393A3A3A3A3A3A3A3B3B3BA6
:101DA0003B3B3B3B3C3C3C3C3C3C3C3D3D3D3D3D72
:101DB0003D3D3E3E3E3E3E3E3E3F3F3F3F3F3F3F3E
:101DC0004040404040404041414141414141424208
:101DD00042424242424343434343434344444444D4
:101DE00044444445454545454545464646464646A0
:101DF000464747474747474748484848484848496B
:101E00004949494949494A4A4A4A4A4A4A4B4B4B35
:101E10004B4B4B4B4C4C4C4C4C4C4C4D4D4D4D4D01
:101E20004D4D4E4E4E4E4E4E4E4F4F4F4F4F4F4FCD
:101E30005050505050505051515151515151525297
:101E40005252525252535353535353535454545463
:101E5000545454555555555555555656565656562F
:101E600056575757575757575858585858585859FA
:101E70005959595959595A5A5A5A5A5A5A5B5B5BC5
:101E80005B5B5B5B5C5C5C5C5C5C5C5D5D5D5D5D91
:101E90005D5D5E5E5E5E5E5E5E5F5F5F5F5F5F5F5D
:101EA0006060606060606061616161616161626227
:101EB0006262626262636363636363630000000083
:101EC0000000000000000000000000000000000012
:101ED0000000000000000000000000000000000002
:101EE00000000000000000000000000000000000F2
:101EF00000000000000000000000000000000000E2
:101F000000000000000000000000000000000000D1
:101F100000000000000000000000000000000000C1
:101F200000000000000000000000000000000000B1
:101F300000000000000000000000000000000000A1
:101F40000000000000000000000000000000000091
:101F50000000000000000000000000000000000081
:101F60000000000000000000000000000000000071
:101F70000000000000000000000000000000000061
:101F80000000000000000000000000000000000051
:101F90000000000000000000000000000000000041
:101FA0000000000000000000000000000000000031
:101FB0000000000000000000000000000000000021
:101FC0000000000000000000000000000000000011
:101FD0000000000000000000000000000000000001
:101FE00000000000000000000000000000000000F1
:101FF00000000000000000000000000000000000E1
:1020000000000000000000000101010101010101C8
:102010000202020202020202030303030303030398
:102020000404040404040404050505050505050568
:102030000606060606060606070707070707070738
:102040000808080808080808090909090909090908
:102050000A0A0A0A0A0A0A0A0B0B0B0B0B0B0B0BD8
:102060000C0C0C0C0C0C0C0C0D0D0D0D0D0D0D0DA8
:102070000E0E0E0E0E0E0E0E0F0F0F0F0F0F0F0F78
:102080001010101010101010111111111111111148
:102090001212121212121212131313131313131318
:1020A00014141414141414141515151515151515E8
:1020B00016161616161616161717171717171717B8
:1020C0001818181818181818191919191919191988
:1020D0001A1A1A1A1A1A1A1A1B1B1B1B1B1B1B1B58
:1020E0001C1C1C1C1C1C1C1C1D1D1D1D1D1D1D1D28
:1020F0001E1E1E1E1E1E1E1E1F1F1F1F1F1F1F1FF8
:1021000020202020202020202121212121212121C7
:102110002222222222222222232323232323232397
:102120002424242424242424252525252525252567
:102130002626262626262626272727272727272737
:102140002828282828282828292929292929292907
:102150002A2A2A2A2A2A2A2A2B2B2B2B2B2B2B2BD7
:102160002C2C2C2C2C2C2C2C2D2D2D2D2D2D2D2DA7
:102170002E2E2E2E2E2E2E2E2F2F2F2F2F2F2F2F77
:102180003030303030303030313131313131313147
:102190003232323232323232333333333333333317
:1021A00034343434343434343535353535353535E7
:1021B00036363636363636363737373737373737B7
:1021C0003838383838383838393939393939393987
:1021D0003A3A3A3A3A3A3A3A3B3B3B3B3B3B3B3B57
:1021E0003C3C3C3C3C3C3C3C3D3D3D3D3D3D3D3D27
:1021F0003E3E3E3E3E3E3E3E3F3F3F3F3F3F3F3FF7
:1022000040404040404040404141414141414141C6
:102210004242424242424242434343434343434396
:102220004444444444444444454545454545454566
:102230004646464646464646474747474747474736
:102240004848484848484848494949494949494906
:102250004A4A4A4A4A4A4A4A4B4B4B4B4B4B4B4BD6
:102260004C4C4C4C4C4C4C4C4D4D4D4D4D4D4D4DA6
:102270004E4E4E4E4E4E4E4E4F4F4F4F4F4F4F4F76
:102280005050505050505050515151515151515146
:102290005252525252525252535353535353535316
:1022A00054545454545454545555555555555555E6
:1022B00056565656565656565757575757575757B6
:1022C0005858585858585858595959595959595986
:1022D0005A5A5A5A5A5A5A5A5B5B5B5B5B5B5B5B56
:1022E0005C5C5C5C5C5C5C5C5D5D5D5D5D5D5D5D26
:1022F0005E5E5E5E5E5E5E5E5F5F5F5F5F5F5F5FF6
:1023000060606060606060606161616161616161C5
:102310006262626262626262636363636363636395
:1023200000000000000000000000000000000000AD
:10233000000000000000000000000000000000009D
:10234000000000000000000000000000000000008D
:10235000000000000000000000000000000000007D
:10236000000000000000000000000000000000006D
:10237000000000000000000000000000000000005D
:10238000000000000000000000000000000000004D
:10239000000000000000000000000000000000003D
:1023A000000000000000000000000000000000002D
:1023B000000000000000000000000000000000001D
:1023C000000000000000000000000000000000000D
:1023D00000000000000000000000000000000000FD
:1023E00000000000000000000000000000000000ED
:1023F00000000000000000000000000000000000DD
:1024000000000000000000000001010101010101C5
:102410000101020202020202020202030303030399
:10242000030303030404040404040404040505056D
:102430000505050505050606060606060606060741
:102440000707070707070707080808080808080814
:10245000080909090909090909090A0A0A0A0A0AE7
:102460000A0A0A0B0B0B0B0B0B0B0B0B0C0C0C0CBB
:102470000C0C0C0C0C0D0D0D0D0D0D0D0D0D0E0E8F
:102480000E0E0E0E0E0E0E0F0F0F0F0F0F0F0F0F63
:102490001010101010101010101111111111111135
:1024A0001111121212121212121212131313131309
:1024B00013131313141414141414141414151515DD
:1024C00015151515151516161616161616161617B1
:1024D0001717171717171717181818181818181884
:1024E000181919191919191919191A1A1A1A1A1A57
:1024F0001A1A1A1B1B1B1B1B1B1B1B1B1C1C1C1C2B
:102500001C1C1C1C1C1D1D1D1D1D1D1D1D1D1E1EFE
:102510001E1E1E1E1E1E1E1F1F1F1F1F1F1F1F1FD2
:1025200020202020202020202021212121212121A4
:102530002121222222222222222222232323232378
:10254000232323232424242424242424242525254C
:102550002525252525252626262626262626262720
:1025600027272727272727272828282828282828F3
:10257000282929292929292929292A2A2A2A2A2AC6
:102580002A2A2A2B2B2B2B2B2B2B2B2B2C2C2C2C9A
:102590002C2C2C2C2C2D2D2D2D2D2D2D2D2D2E2E6E
:1025A0002E2E2E2E2E2E2E2F2F2F2F2F2F2F2F2F42
:1025B0003030303030303030303131313131313114
:1025C00031313232323232323232323333333333E8
:1025D00033333333343434343434343434353535BC
:1025E0003535353535353636363636363636363790
:1025F0003737373737373737383838383838383863
:10260000383939393939393939393A3A3A3A3A3A35
:102610003A3A3A3B3B3B3B3B3B3B3B3B3C3C3C3C09
:102620003C3C3C3C3C3D3D3D3D3D3D3D3D3D3E3EDD
:102630003E3E3E3E3E3E3E3F3F3F3F3F3F3F3F3FB1
:102640004040404040404040404141414141414183
:102650004141424242424242424242434343434357
:10266000434343434444444444444444444545452B
:1026700045454545454546464646464646464647FF
:1026800047474747474747474848484848484848D2
:10269000484949494949494949494A4A4A4A4A4AA5
:1026A0004A4A4A4B4B4B4B4B4B4B4B4B4C4C4C4C79
:1026B0004C4C4C4C4C4D4D4D4D4D4D4D4D4D4E4E4D
:1026C0004E4E4E4E4E4E4E4F4F4F4F4F4F4F4F4F21
:1026D00050505050505050505051515151515151F3
:1026E00051515252525252525252525353535353C7
:1026F000535353535454545454545454545555559B
:10270000555555555555565656565656565656576E
:102710005757575757575757585858585858585841
:10272000585959595959595959595A5A5A5A5A5A14
:102730005A5A5A5B5B5B5B5B5B5B5B5B5C5C5C5CE8
:102740005C5C5C5C5C5D5D5D5D5D5D5D5D5D5E5EBC
:102750005E5E5E5E5E5E5E5F5F5F5F5F5F5F5F5F90
:102760006060606060606060606161616161616162
:102770006161626262626262626262636363636336
:1027800063636363000000000000000000000000BD
:102790000000000000000000000000000000000039
:1027A0000000000000000000000000000000000029
:1027B0000000000000000000000000000000000019
:1027C0000000000000000000000000000000000009
:1027D00000000000000000000000000000000000F9
:1027E00000000000000000000000000000000000E9
:1027F00000000000000000000000000000000000D9
:1028000000000000000000000000010101010101C2
:10281000010101010202020202020202020203039A
:102820000303030303030303040404040404040470
:102830000404050505050505050505050606060646
:10284000060606060606070707070707070707071E
:1028500008080808080808080808090909090909F2
:10286000090909090A0A0A0A0A0A0A0A0A0A0B0BCA
:102870000B0B0B0B0B0B0B0B0C0C0C0C0C0C0C0CA0
:102880000C0C0D0D0D0D0D0D0D0D0D0D0E0E0E0E76
:102890000E0E0E0E0E0E0F0F0F0F0F0F0F0F0F0F4E
:1028A0001010101010101010101011111111111122
:1028B00011111111121212121212121212121313FA
:1028C00013131313131313131414141414141414D0
:1028D00014141515151515151515151516161616A6
:1028E000161616161616171717171717171717177E
:1028F0001818181818181818181819191919191952
:10290000191919191A1A1A1A1A1A1A1A1A1A1B1B29
:102910001B1B1B1B1B1B1B1B1C1C1C1C1C1C1C1CFF
:102920001C1C1D1D1D1D1D1D1D1D1D1D1E1E1E1ED5
:102930001E1E1E1E1E1E1F1F1F1F1F1F1F1F1F1FAD
:102940002020202020202020202021212121212181
:102950002121212122222222222222222222232359
:10296000232323232323232324242424242424242F
:102970002424252525252525252525252626262605
:1029800026262626262627272727272727272727DD
:1029900028282828282828282828292929292929B1
:1029A000292929292A2A2A2A2A2A2A2A2A2A2B2B89
:1029B0002B2B2B2B2B2B2B2B2C2C2C2C2C2C2C2C5F
:1029C0002C2C2D2D2D2D2D2D2D2D2D2D2E2E2E2E35
:1029D0002E2E2E2E2E2E2F2F2F2F2F2F2F2F2F2F0D
:1029E00030303030303030303030313131313131E1
:1029F00031313131323232323232323232323333B9
:102A0000333333333333333334343434343434348E
:102A10003434353535353535353535353636363664
:102A2000363636363636373737373737373737373C
:102A30003838383838383838383839393939393910
:102A4000393939393A3A3A3A3A3A3A3A3A3A3B3BE8
:102A50003B3B3B3B3B3B3B3B3C3C3C3C3C3C3C3CBE
:102A60003C3C3D3D3D3D3D3D3D3D3D3D3E3E3E3E94
:102A70003E3E3E3E3E3E3F3F3F3F3F3F3F3F3F3F6C
:102A80004040404040404040404041414141414140
:102A90004141414142424242424242424242434318
:102AA00043434343434343434444444444444444EE
:102AB00044444545454545454545454546464646C4
:102AC000464646464646474747474747474747479C
:102AD0004848484848484848484849494949494970
:102AE000494949494A4A4A4A4A4A4A4A4A4A4B4B48
:102AF0004B4B4B4B4B4B4B4B4C4C4C4C4C4C4C4C1E
:102B00004C4C4D4D4D4D4D4D4D4D4D4D4E4E4E4EF3
:102B10004E4E4E4E4E4E4F4F4F4F4F4F4F4F4F4FCB
:102B2000505050505050505050505151515151519F
:102B30005151515152525252525252525252535377
:102B4000535353535353535354545454545454544D
:102B50005454555555555555555555555656565623
:102B600056565656565657575757575757575757FB
:102B700058585858585858585858595959595959CF
:102B8000595959595A5A5A5A5A5A5A5A5A5A5B5BA7
:102B90005B5B5B5B5B5B5B5B5C5C5C5C5C5C5C5C7D
:102BA0005C5C5D5D5D5D5D5D5D5D5D5D5E5E5E5E53
:102BB0005E5E5E5E5E5E5F5F5F5F5F5F5F5F5F5F2B
:102BC00060606060606060606060616161616161FF
:102BD00061616161626262626262626262626363D7
:102BE00063636363636363630000000000000000CD
:102BF00000000000000000000000000000000000D5
:102C000000000000000000000000000101010101BF
:102C1000010101010101020202020202020202029A
:102C20000203030303030303030303030404040471
:102C3000040404040404040505050505050505054B
:102C40000505060606060606060606060607070723
:102C500007070707070707070808080808080808FC
:102C600008080809090909090909090909090A0AD5
:102C70000A0A0A0A0A0A0A0A0A0B0B0B0B0B0B0BAD
:102C80000B0B0B0B0C0C0C0C0C0C0C0C0C0C0C0D87
:102C90000D0D0D0D0D0D0D0D0D0D0E0E0E0E0E0E5E
:102CA0000E0E0E0E0E0F0F0F0F0F0F0F0F0F0F0F39
:102CB000101010101010101010101011111111110F
:102CC00011111111111112121212121212121212EA
:102CD00012131313131313131313131314141414C1
:102CE000141414141414141515151515151515159B
:102CF0001515161616161616161616161617171773
:102D0000171717171717171718181818181818184B
:102D100018181819191919191919191919191A1A24
:102D20001A1A1A1A1A1A1A1A1A1B1B1B1B1B1B1BFC
:102D30001B1B1B1B1C1C1C1C1C1C1C1C1C1C1C1DD6
:102D40001D1D1D1D1D1D1D1D1D1D1E1E1E1E1E1EAD
:102D50001E1E1E1E1E1F1F1F1F1F1F1F1F1F1F1F88
:102D6000202020202020202020202021212121215E
:102D70002121212121212222222222222222222239
:102D80002223232323232323232323232424242410
:102D900024242424242424252525252525252525EA
:102DA00025252626262626262626262626272727C2
:102DB000272727272727272728282828282828289B
:102DC00028282829292929292929292929292A2A74
:102DD0002A2A2A2A2A2A2A2A2A2B2B2B2B2B2B2B4C
:102DE0002B2B2B2B2C2C2C2C2C2C2C2C2C2C2C2D26
:102DF0002D2D2D2D2D2D2D2D2D2D2E2E2E2E2E2EFD
:102E00002E2E2E2E2E2F2F2F2F2F2F2F2F2F2F2FD7
:102E100030303030303030303030303131313131AD
:102E20003131313131313232323232323232323288
:102E3000323333333333333333333333343434345F
:102E40003434343434343435353535353535353539
:102E50003535363636363636363636363637373711
:102E600037373737373737373838383838383838EA
:102E700038383839393939393939393939393A3AC3
:102E80003A3A3A3A3A3A3A3A3A3B3B3B3B3B3B3B9B
:102E90003B3B3B3B3C3C3C3C3C3C3C3C3C3C3C3D75
:102EA0003D3D3D3D3D3D3D3D3D3D3E3E3E3E3E3E4C
:102EB0003E3E3E3E3E3F3F3F3F3F3F3F3F3F3F3F27
:102EC00040404040404040404040404141414141FD
:102ED00041414141414142424242424242424242D8
:102EE00042434343434343434343434344444444AF
:102EF0004444444444444445454545454545454589
:102F00004545464646464646464646464647474760
:102F10004747474747474747484848484848484839
:102F200048484849494949494949494949494A4A12
:102F30004A4A4A4A4A4A4A4A4A4B4B4B4B4B4B4BEA
:102F40004B4B4B4B4C4C4C4C4C4C4C4C4C4C4C4DC4
:102F50004D4D4D4D4D4D4D4D4D4D4E4E4E4E4E4E9B
:102F60004E4E4E4E4E4F4F4F4F4F4F4F4F4F4F4F76
:102F7000505050505050505050505051515151514C
:102F80005151515151515252525252525252525227
:102F900052535353535353535353535354545454FE
:102FA00054545454545454555555555555555555D8
:102FB00055555656565656565656565656575757B0
:102FC0005757575757575757585858585858585889
:102FD00058585859595959595959595959595A5A62
:102FE0005A5A5A5A5A5A5A5A5A5B5B5B5B5B5B5B3A
:102FF0005B5B5B5B5C5C5C5C5C5C5C5C5C5C5C5D14
:1030000000000000000000000000000001010101BC
:103010000101010101010101020202020202020298
:103020000202020203030303030303030303030374
:10303000040404040404040404040404050505054C
:103040000505050505050505060606060606060628
:103050000606060607070707070707070707070704
:1030600008080808080808080808080809090909DC
:1030700009090909090909090A0A0A0A0A0A0A0AB8
:103080000A0A0A0A0B0B0B0B0B0B0B0B0B0B0B0B94
:103090000C0C0C0C0C0C0C0C0C0C0C0C0D0D0D0D6C
:1030A0000D0D0D0D0D0D0D0D0E0E0E0E0E0E0E0E48
:1030B0000E0E0E0E0F0F0F0F0F0F0F0F0F0F0F0F24
:1030C00010101010101010101010101011111111FC
:1030D00011111111111111111212121212121212D8
:1030E00012121212131313131313131313131313B4
:1030F000141414141414141414141414151515158C
:103100001515151515151515161616161616161667
:103110001616161617171717171717171717171743
:10312000181818181818181818181818191919191B
:1031300019191919191919191A1A1A1A1A1A1A1AF7
:103140001A1A1A1A1B1B1B1B1B1B1B1B1B1B1B1BD3
:103150001C1C1C1C1C1C1C1C1C1C1C1C1D1D1D1DAB
:103160001D1D1D1D1D1D1D1D1E1E1E1E1E1E1E1E87
:103170001E1E1E1E1F1F1F1F1F1F1F1F1F1F1F1F63
:10318000202020202020202020202020212121213B
:103190002121212121212121222222222222222217
:1031A00022222222232323232323232323232323F3
:1031B00024242424242424242424242425252525CB
:1031C00025252525252525252626262626262626A7
:1031D0002626262627272727272727272727272783
:1031E000282828282828282828282828292929295B
:1031F00029292929292929292A2A2A2A2A2A2A2A37
:103200002A2A2A2A2B2B2B2B2B2B2B2B2B2B2B2B12
:103210002C2C2C2C2C2C2C2C2C2C2C2C2D2D2D2DEA
:103220002D2D2D2D2D2D2D2D2E2E2E2E2E2E2E2EC6
:103230002E2E2E2E2F2F2F2F2F2F2F2F2F2F2F2FA2
:10324000303030303030303030303030313131317A
:103250003131313131313131323232323232323256
:103260003232323233333333333333333333333332
:10327000343434343434343434343434353535350A
:1032800035353535353535353636363636363636E6
:1032900036363636373737373737373737373737C2
:1032A000383838383838383838383838393939399A
:1032B00039393939393939393A3A3A3A3A3A3A3A76
:1032C0003A3A3A3A3B3B3B3B3B3B3B3B3B3B3B3B52
:1032D0003C3C3C3C3C3C3C3C3C3C3C3C3D3D3D3D2A
:1032E0003D3D3D3D3D3D3D3D3E3E3E3E3E3E3E3E06
:1032F0003E3E3E3E3F3F3F3F3F3F3F3F3F3F3F3FE2
:1033000040404040404040404040404041414141B9
:103310004141414141414141424242424242424295
:103320004242424243434343434343434343434371
:103330004444444444444444444444444545454549
:103340004545454545454545464646464646464625
:103350004646464647474747474747474747474701
:1033600048484848484848484848484849494949D9
:1033700049494949494949494A4A4A4A4A4A4A4AB5
:103380004A4A4A4A4B4B4B4B4B4B4B4B4B4B4B4B91
:103390004C4C4C4C4C4C4C4C4C4C4C4C4D4D4D4D69
:1033A0004D4D4D4D4D4D4D4D4E4E4E4E4E4E4E4E45
:1033B0004E4E4E4E4F4F4F4F4F4F4F4F4F4F4F4F21
:1033C00050505050505050505050505051515151F9
:1033D00051515151515151515252525252525252D5
:1033E00052525252535353535353535353535353B1
:1033F0005454545454545454545454545555555589
:1034000000000000000000000000000000010101B9
:103410000101010101010101010102020202020296
:103420000202020202020203030303030303030373
:103430000303030304040404040404040404040450
:10344000040505050505050505050505050506062B
:103450000606060606060606060606070707070707
:1034600007070707070707070808080808080808E4
:1034700008080808080909090909090909090909C1
:1034800009090A0A0A0A0A0A0A0A0A0A0A0A0A0B9D
:103490000B0B0B0B0B0B0B0B0B0B0B0B0C0C0C0C78
:1034A0000C0C0C0C0C0C0C0C0C0D0D0D0D0D0D0D55
:1034B0000D0D0D0D0D0D0E0E0E0E0E0E0E0E0E0E32
:1034C0000E0E0E0F0F0F0F0F0F0F0F0F0F0F0F0F0F
:1034D00010101010101010101010101010111111E9
:1034E00011111111111111111111121212121212C6
:1034F00012121212121212131313131313131313A3
:10350000131313131414141414141414141414147F
:10351000141515151515151515151515151516165A
:103520001616161616161616161616171717171736
:103530001717171717171717181818181818181813
:1035400018181818181919191919191919191919F0
:1035500019191A1A1A1A1A1A1A1A1A1A1A1A1A1BCC
:103560001B1B1B1B1B1B1B1B1B1B1B1B1C1C1C1CA7
:103570001C1C1C1C1C1C1C1C1C1D1D1D1D1D1D1D84
:103580001D1D1D1D1D1D1E1E1E1E1E1E1E1E1E1E61
:103590001E1E1E1F1F1F1F1F1F1F1F1F1F1F1F1F3E
:1035A0002020202020202020202020202021212118
:1035B00021212121212121212121222222222222F5
:1035C00022222222222222232323232323232323D2
:1035D00023232323242424242424242424242424AF
:1035E000242525252525252525252525252526268A
:1035F0002626262626262626262626272727272766
:103600002727272727272727282828282828282842
:10361000282828282829292929292929292929291F
:1036200029292A2A2A2A2A2A2A2A2A2A2A2A2A2BFB
:103630002B2B2B2B2B2B2B2B2B2B2B2B2C2C2C2CD6
:103640002C2C2C2C2C2C2C2C2C2D2D2D2D2D2D2DB3
:103650002D2D2D2D2D2D2E2E2E2E2E2E2E2E2E2E90
:103660002E2E2E2F2F2F2F2F2F2F2F2F2F2F2F2F6D
:103670003030303030303030303030303031313147
:103680003131313131313131313132323232323224
:103690003232323232323233333333333333333301
:1036A00033333333343434343434343434343434DE
:1036B00034353535353535353535353535353636B9
:1036C0003636363636363636363636373737373795
:1036D0003737373737373737383838383838383872
:1036E000383838383839393939393939393939394F
:1036F00039393A3A3A3A3A3A3A3A3A3A3A3A3A3B2B
:103700003B3B3B3B3B3B3B3B3B3B3B3B3C3C3C3C05
:103710003C3C3C3C3C3C3C3C3C3D3D3D3D3D3D3DE2
:103720003D3D3D3D3D3D3E3E3E3E3E3E3E3E3E3EBF
:103730003E3E3E3F3F3F3F3F3F3F3F3F3F3F3F3F9C
:103740004040404040404040404040404041414176
:103750004141414141414141414142424242424253
:103760004242424242424243434343434343434330
:10377000434343434444444444444444444444440D
:1037800044454545454545454545454545454646E8
:1037900046464646464646464646464747474747C4
:1037A00047474747474747474848484848484848A1
:1037B000484848484849494949494949494949497E
:1037C00049494A4A4A4A4A4A4A4A4A4A4A4A4A4B5A
:1037D0004B4B4B4B4B4B4B4B4B4B4B4B4C4C4C4C35
:1037E0004C4C4C4C4C4C4C4C4C4D4D4D4D4D4D4D12
:1037F0004D4D4D4D4D4D4E4E4E4E4E4E4E4E4E4EEF
:1038000000000000000000000000000000000101B6
:103810000101010101010101010101010202020294
:103820000202020202020202020203030303030372
:103830000303030303030303040404040404040450
:10384000040404040404050505050505050505052E
:10385000050505050606060606060606060606060C
:1038600006060707070707070707070707070707EA
:1038700008080808080808080808080808080909C6
:103880000909090909090909090909090A0A0A0AA4
:103890000A0A0A0A0A0A0A0A0A0A0B0B0B0B0B0B82
:1038A0000B0B0B0B0B0B0B0B0C0C0C0C0C0C0C0C60
:1038B0000C0C0C0C0C0C0D0D0D0D0D0D0D0D0D0D3E
:1038C0000D0D0D0D0E0E0E0E0E0E0E0E0E0E0E0E1C
:1038D0000E0E0F0F0F0F0F0F0F0F0F0F0F0F0F0FFA
:1038E00010101010101010101010101010101111D6
:1038F00011111111111111111111111112121212B4
:103900001212121212121212121213131313131391
:10391000131313131313131314141414141414146F
:10392000141414141414151515151515151515154D
:10393000151515151616161616161616161616162B
:103940001616171717171717171717171717171709
:1039500018181818181818181818181818181919E5
:103960001919191919191919191919191A1A1A1AC3
:103970001A1A1A1A1A1A1A1A1A1A1B1B1B1B1B1BA1
:103980001B1B1B1B1B1B1B1B1C1C1C1C1C1C1C1C7F
:103990001C1C1C1C1C1C1D1D1D1D1D1D1D1D1D1D5D
:1039A0001D1D1D1D1E1E1E1E1E1E1E1E1E1E1E1E3B
:1039B0001E1E1F1F1F1F1F1F1F1F1F1F1F1F1F1F19
:1039C00020202020202020202020202020202121F5
:1039D00021212121212121212121212122222222D3
:1039E00022222222222222222222232323232323B1
:1039F000232323232323232324242424242424248F
:103A0000242424242424252525252525252525256C
:103A1000252525252626262626262626262626264A
:103A20002626272727272727272727272727272728
:103A30002828282828282828282828282828292904
:103A40002929292929292929292929292A2A2A2AE2
:103A50002A2A2A2A2A2A2A2A2A2A2B2B2B2B2B2BC0
:103A60002B2B2B2B2B2B2B2B2C2C2C2C2C2C2C2C9E
:103A70002C2C2C2C2C2C2D2D2D2D2D2D2D2D2D2D7C
:103A80002D2D2D2D2E2E2E2E2E2E2E2E2E2E2E2E5A
:103A90002E2E2F2F2F2F2F2F2F2F2F2F2F2F2F2F38
:103AA0003030303030303030303030303030313114
:103AB00031313131313131313131313132323232F2
:103AC00032323232323232323232333333333333D0
:103AD00033333333333333333434343434343434AE
:103AE000343434343434353535353535353535358C
:103AF000353535353636363636363636363636366A
:103B00003636373737373737373737373737373747
:103B10003838383838383838383838383838393923
:103B20003939393939393939393939393A3A3A3A01
:103B30003A3A3A3A3A3A3A3A3A3A3B3B3B3B3B3BDF
:103B40003B3B3B3B3B3B3B3B3C3C3C3C3C3C3C3CBD
:103B50003C3C3C3C3C3C3D3D3D3D3D3D3D3D3D3D9B
:103B60003D3D3D3D3E3E3E3E3E3E3E3E3E3E3E3E79
:103B70003E3E3F3F3F3F3F3F3F3F3F3F3F3F3F3F57
:103B80004040404040404040404040404040414133
:103B90004141414141414141414141414242424211
:103BA00042424242424242424242434343434343EF
:103BB00043434343434343434444444444444444CD
:103BC00044444444444445454545454545454545AB
:103BD0004545454546464646464646464646464689
:103BE0004646474747474747474747474747474767
:103BF0004848484848484848484848484848494943
:103C000000000000000000000000000000000001B3
:103C10000101010101010101010101010101020292
:103C20000202020202020202020202020203030371
:103C30000303030303030303030303030404040450
:103C4000040404040404040404040405050505052F
:103C5000050505050505050505050606060606060E
:103C600006060606060606060607070707070707ED
:103C700007070707070707070808080808080808CC
:103C800008080808080808090909090909090909AB
:103C90000909090909090A0A0A0A0A0A0A0A0A0A8A
:103CA0000A0A0A0A0A0B0B0B0B0B0B0B0B0B0B0B69
:103CB0000B0B0B0B0C0C0C0C0C0C0C0C0C0C0C0C48
:103CC0000C0C0C0D0D0D0D0D0D0D0D0D0D0D0D0D27
:103CD0000D0D0E0E0E0E0E0E0E0E0E0E0E0E0E0E06
:103CE0000E0F0F0F0F0F0F0F0F0F0F0F0F0F0F0FE5
:103CF00010101010101010101010101010101011C3
:103D000011111111111111111111111111111212A1
:103D10001212121212121212121212121213131380
:103D2000131313131313131313131313141414145F
:103D3000141414141414141414141415151515153E
:103D4000151515151515151515151616161616161D
:103D500016161616161616161617171717171717FC
:103D600017171717171717171818181818181818DB
:103D700018181818181818191919191919191919BA
:103D80001919191919191A1A1A1A1A1A1A1A1A1A99
:103D90001A1A1A1A1A1B1B1B1B1B1B1B1B1B1B1B78
:103DA0001B1B1B1B1C1C1C1C1C1C1C1C1C1C1C1C57
:103DB0001C1C1C1D1D1D1D1D1D1D1D1D1D1D1D1D36
:103DC0001D1D1E1E1E1E1E1E1E1E1E1E1E1E1E1E15
:103DD0001E1F1F1F1F1F1F1F1F1F1F1F1F1F1F1FF4
:103DE00020202020202020202020202020202021D2
:103DF00021212121212121212121212121212222B1
:103E0000222222222222222222222222222323238F
:103E1000232323232323232323232323242424246E
:103E2000242424242424242424242425252525254D
:103E3000252525252525252525252626262626262C
:103E4000262626262626262626272727272727270B
:103E500027272727272727272828282828282828EA
:103E600028282828282828292929292929292929C9
:103E70002929292929292A2A2A2A2A2A2A2A2A2AA8
:103E80002A2A2A2A2A2B2B2B2B2B2B2B2B2B2B2B87
:103E90002B2B2B2B2C2C2C2C2C2C2C2C2C2C2C2C66
:103EA0002C2C2C2D2D2D2D2D2D2D2D2D2D2D2D2D45
:103EB0002D2D2E2E2E2E2E2E2E2E2E2E2E2E2E2E24
:103EC0002E2F2F2F2F2F2F2F2F2F2F2F2F2F2F2F03
:103ED00030303030303030303030303030303031E1
:103EE00031313131313131313131313131313232C0
:103EF000323232323232323232323232323333339F
:103F0000333333333333333333333333343434347D
:103F1000343434343434343434343435353535355C
:103F2000353535353535353535353636363636363B
:103F3000363636363636363636373737373737371A
:103F400037373737373737373838383838383838F9
:103F500038383838383838393939393939393939D8
:103F60003939393939393A3A3A3A3A3A3A3A3A3AB7
:103F70003A3A3A3A3A3B3B3B3B3B3B3B3B3B3B3B96
:103F80003B3B3B3B3C3C3C3C3C3C3C3C3C3C3C3C75
:103F90003C3C3C3D3D3D3D3D3D3D3D3D3D3D3D3D54
:103FA0003D3D3E3E3E3E3E3E3E3E3E3E3E3E3E3E33
:103FB0003E3F3F3F3F3F3F3F3F3F3F3F3F3F3F3F12
:103FC00040404040404040404040404040404041F0
:103FD00041414141414141414141414141414242CF
:103FE00042424242424242424242424242434343AE
:103FF000434343434343434343434343444444448D
:1040000000000000000000000000000000000000B0
:1040100000000000000000000000000000000000A0
:104020000000000000000000000000000000000090
:104030000000000000000000000000000000000080
:00000001FF
